:100000000C9459000C9476000C9476000C947600B5
:100010000C9445180C9476000C9476000C947600A1
:100020000C9476000C9476000C9476000C94760078
:100030000C9476000C9476000C9476000C94760068
:100040000C9476000C9476000C9476000C94760058
:100050000C9476007E1683168C16A516B216B5166D
:10006000DE1606172A177317781785178A17D917F8
:10007000E217E917F117F817FF170C1814181718DB
:1000800024182D1835180706050403020100102056
:100090003040506070717273747576776757473768
:1000A0002717040312213040516273746556473795
:1000B000261511241FBECFE5D8E0DEBFCDBF10E06E
:1000C000A0E6B0E0E6E5F4E302C005900D92A83AA0
:1000D000B107D9F721E0A8EAB0E001C01D92AA3229
:1000E000B207E1F70E9417190C94291A0C9400002A
:1000F000089748F46830710540F481E048305105B4
:1001000028F080E0089580E0089580E00895FF924F
:100110000F931F93CF93DF93F82EEB018A010E9478
:1001200078008823A9F0000F111F000F111F000F86
:10013000111FC00FD11FC851DF4F488121E030E0AF
:10014000C90102C0880F991FFA94E2F7842B8883B3
:10015000DF91CF911F910F91FF900895FF920F9320
:100160001F93CF93DF93F82EEB018A010E94780052
:100170008823B1F0000F111F000F111F000F111F76
:10018000C00FD11FC851DF4F488121E030E0C901C5
:1001900002C0880F991FFA94E2F780958423888320
:1001A000DF91CF911F910F91FF900895FF920F93D0
:1001B0001F93CF93DF93F82EEB018A010E94780002
:1001C000882399F0000F111F000F111F000F111F3E
:1001D000C00FD11FC851DF4F288130E0C90102C0D4
:1001E00095958795FA94E2F78170DF91CF911F91F1
:1001F0000F91FF9008952130310519F40E94870076
:1002000008950E94AE000895FF920F931F93CF931D
:10021000DF93F82EEB018A010E9478008823A9F071
:10022000000F111F000F111F000F111FC00FD11F52
:10023000C851DF4F488121E030E0C90102C0880F7A
:10024000991FFA94E2F784278883DF91CF911F9159
:100250000F91FF90089588309105A0F420E030E0E0
:10026000880F991F880F991F880F991F4FEFFC0166
:10027000E20FF31FE851FF4F40832F5F3F4F2830BD
:100280003105A9F708958830910528F571E001C07E
:10029000770F8A95EAF740E050E0B0E0A0E011C0A7
:1002A000F901E80FF91FE851FF4F6081672B608368
:1002B000019688309105A1F74F5F5F4F4830510597
:1002C00051F08B2F9A2F9A01220F331F220F331FC9
:1002D000220F331FE5CF089588309105A0F420E068
:1002E00030E04FEFF901EE0FFF1FEE0FFF1FEE0F93
:1002F000FF1FE80FF91FE851FF4F40832F5F3F4F6B
:100300002830310579F70895893749F08A3761F047
:10031000883771F4862F90E00E9443010895862F5C
:1003200090E00E946C010895862F90E00E942B01BE
:10033000089560E070E0A0E090E010C0FA01E20FE4
:10034000F31FE851FF4F80832F5F3F4F2830310567
:10035000A9F76F5F7F4F6830710551F02A2F392F51
:10036000AB01440F551F440F551F440F551FE6CFD7
:1003700008956F5F7F4F2FEF30E0A90102C0440F57
:10038000551F6A95E2F7BA016095A90102C0440FB2
:10039000551F8A95E2F7CA01862308956F927F92CE
:1003A0008F929F92AF92BF92CF92DF92EF92FF9285
:1003B0000F931F93CF93DF935C014B01EA01690117
:1003C0003701281739072CF4982F8B2D5901C92E86
:1003D000D82E081519052CF4982D892D4801092FC0
:1003E000182F6C167D062CF49C2F8D2FE301692E9F
:1003F000782EB601C5010E94B9019E01220F331F5C
:10040000220F331F220F331FF901E80DF91DE851A8
:10041000FF4F8083200F311FF901E851FF4F808388
:100420009301220F331F220F331F220F331FF901B5
:10043000E80DF91DE851FF4F8083200F311FF901AE
:10044000E851FF4F808308151905DCF07401AE01F7
:10045000B701C5010E948700A301B701C5010E9431
:100460008700AE01B701C6010E948700A301B70152
:10047000C6010E9487008FEFE81AF80A0E151F05C3
:1004800034F76C167D06C4F0AE01B401C5010E94BC
:100490008700AE01B801C5010E948700AE01B4011A
:1004A000C6010E948700AE01B801C6010E94870004
:1004B00021966C167D0644F7DF91CF911F910F9125
:1004C000FF90EF90DF90CF90BF90AF909F908F9074
:1004D0007F906F900895282F30E0E82FE295E69501
:1004E000E770E270982F991F9927991FE92B982F91
:1004F0009695969596959470E92B869588708E2B97
:10050000F901EE0FFF1FE0718E2BB901660F771F07
:10051000660F771F660F771F6072862BA901440F45
:10052000551F42955295507F5427407F5427407461
:10053000842B3695322F222737952795822B0895C5
:10054000009761F408950000000000000000000022
:1005500000002150C1F70197009711F02AE5F3CF71
:10056000089580E4E8EAF0E0A8EEB0E001900D9292
:100570008A95E1F708952F923F924F925F926F9282
:100580007F928F929F92AF92BF92CF92DF92EF9223
:10059000FF920F931F93CF93DF93182F5B01C12C12
:1005A000D12C0F2EF7E08F2E912CF02D00E0412C56
:1005B000502E4FEFA416B40621F07401EC18FD087C
:1005C00001C0760197012F5F3F4FC70101974FEFA1
:1005D000A416B40619F4622E732E02C0682E792E6A
:1005E000212C302E3AC01A3771F4462D572DBE01FA
:1005F000C1010E94D600282F30E0A701BE01C10131
:100600000E94FB001FC0193771F4AE01662D772DD3
:10061000C1010E94D600282F30E0AE01B701C10110
:100620000E94FB000FC0183769F4A101BE01862D9E
:10063000972D0E94D600282F30E0A101BE01C701EE
:100640000E94FB002196C830D10569F68FEF281A69
:10065000380A48E02416310419F0C42DD52DC3CF33
:100660008FEFC81AD80A48E0C416D10409F0A1CF08
:10067000AB20A09431F40F2EF7E0EF2EF12CF02DEB
:1006800002C0E12CF12CA12CB12CC12CD12C22C008
:100690001A3731F4A701BE01C5010E94AE000FC098
:1006A000193731F4AE01B701C5010E94AE0007C091
:1006B000183729F4A501BE01C7010E94AE0021969A
:1006C000C830D10529F74FEFA41AB40A88E0A8165C
:1006D000B10419F0CC2DDD2DDBCFDF91CF911F912F
:1006E0000F91FF90EF90DF90CF90BF90AF909F90D1
:1006F0008F907F906F905F904F903F902F900895D4
:100700004F925F926F927F928F929F92AF92BF9221
:10071000CF92DF92EF92FF920F931F93CF93DF93CD
:10072000CDB7DEB7C054D1090FB6F894DEBF0FBE07
:10073000CDBF80E4E8EEF0E0DE01119601900D926D
:100740008A95E1F780E00E949901CE0101964C0163
:10075000A12CB12C0F2EF7E04F2EF02D512C612C37
:10076000712C2AC0F701808190E0002E02C095957F
:1007700087950A94E2F780FF06C0A501B601802F95
:10078000912F0E9487000F5F1F4F0830110551F70E
:10079000FFEFEF1AFF0A81E0C81AD10818F0062D02
:1007A000172DE0CFEFEFAE1ABE0AF8E08F0E911CC6
:1007B00088E0A816B10421F07401C42CD52CEFCF29
:1007C000C05CDF4F0FB6F894DEBF0FBECDBFDF9128
:1007D000CF911F910F91FF90EF90DF90CF90BF903E
:1007E000AF909F908F907F906F905F904F90089503
:1007F0006F927F928F929F92AF92BF92CF92DF9231
:10080000EF92FF920F931F93CF93DF93CDB7DEB795
:10081000C054D1090FB6F894DEBF0FBECDBF80E43F
:10082000E8EEF0E0DE01119601900D928A95E1F775
:1008300080E00E949901CE0101964C01A12CB12CBF
:10084000612C712C1AC0F70181917F010E946B020B
:10085000F601E00FF11FE851FF4F80830F5F1F4F3C
:100860000830110581F7FFEFAF1ABF0A88E0880E44
:10087000911C98E0A916B10459F07401062D172DAA
:100880006501CC0CDD1CCC0CDD1CCC0CDD1CDBCFE5
:10089000C05CDF4F0FB6F894DEBF0FBECDBFDF9157
:1008A000CF911F910F91FF90EF90DF90CF90BF906D
:1008B000AF909F908F907F906F900895CF93DF932C
:1008C000CDB7DEB7C054D1090FB6F894DEBF0FBE66
:1008D000CDBF80E4E8EEF0E0DE01119601900D92CC
:1008E0008A95E1F720E030E067E050E015C04081F4
:1008F000DC01AA0FBB1FAA0FBB1FAA0FBB1FA20FB1
:10090000B31FA851BF4F4C933896019780F72F5FC4
:100910003F4F2830310549F0E1E0F0E0EC0FFD1FDA
:10092000E20FF31F862F952FE2CFC05CDF4F0FB68B
:10093000F894DEBF0FBECDBFDF91CF9108952F9207
:100940003F924F925F926F927F928F929F92AF925F
:10095000BF92CF92DF92EF92FF920F931F93CF93AC
:10096000DF9300D000D01F92CDB7DEB74C01689462
:10097000442441F8512C6894CC24C7F8D12C612C24
:10098000712C0F2EF6E03F2EF02D212C41C0BE0120
:100990006F5F7F4F0E942C16CE0101967C01A42C24
:1009A000B52C23C0F701808190E09601002E02C093
:1009B000359527950A94E2F782239323892B31F00A
:1009C000A801B50187E090E00E9487000F5F1F4FEC
:1009D0000830110539F7FFEFEF1AFF0A8FEFA81A59
:1009E000B80A97E0A916B10419F0062D172DDACF31
:1009F000032D122D8CED95E00E94A0026FEF7FEF8A
:100A000088E70E94BB02015011090115110591F7F9
:100A1000F40181914F018111BACF08E010E088EE16
:100A200093E00E94A0026FEF7FEF88E70E94BB0275
:100A3000015011090115110591F70F900F900F90BA
:100A40000F900F90DF91CF911F910F91FF90EF903A
:100A5000DF90CF90BF90AF909F908F907F906F90DE
:100A60005F904F903F902F900895EF92FF920F93D9
:100A70001F93CF93DF93E82EC0E0162FD72F80E08F
:100A80000E9499016C2F8E2D0E948401012FFD2E52
:100A9000812F9D2F0E94A002CF5FC83081F7C7E051
:100AA00080E00E9499016C2F8E2D0E948401802F7E
:100AB0009F2D0E94A002C15098F7DF91CF911F9106
:100AC0000F91FF90EF9008958F929F92AF92BF92F7
:100AD000CF92DF92EF92FF920F931F93CF93DF930A
:100AE0005C01181619060CF0C7C0C12CD12C862E3B
:100AF000972E80E00E9499010F2EF7E0EF2EF12C47
:100B0000F02D07E010E027E030E044E050E064E042
:100B100070E084E090E00E94CE01C4E0D0E06FEF8E
:100B20007FEF89E70E94BB02882D992D0E94A002C9
:100B300021972097A1F7C4E0D0E06FEF7FEF88E71F
:100B40000E94BB02882D992D0E94A0022197209718
:100B5000A1F7C4E0D0E061E070E089E70E94BB0249
:100B6000882D992D0E94A00221972097A1F7C4E01B
:100B7000D0E061E070E088E70E94BB02882D992DEB
:100B80000E94A00221972097A1F7C4E0D0E06FEF68
:100B90007FEF89E70E94BB02882D992D0E94A00259
:100BA00021972097A1F7C4E0D0E06FEF7FEF8AE7AD
:100BB0000E94BB02882D992D0E94A00221972097A8
:100BC000A1F7C4E0D0E061E070E089E70E94BB02D9
:100BD000882D992D0E94A00221972097A1F7C4E0AB
:100BE000D0E06FEF7FEF88E70E94BB02882D992D40
:100BF0000E94A00221972097A1F7C4E0D0E06FEFF8
:100C00007FEF89E70E94BB02882D992D0E94A002E8
:100C100021972097A1F7C4E0D0E061E070E088E779
:100C20000E94BB02882D992D0E94A0022197209737
:100C3000A1F7C4E0D0E061E070E089E70E94BB0268
:100C4000882D992D0E94A00221972097A1F7C4E03A
:100C5000D0E061E070E08AE70E94BB02882D992D08
:100C60000E94A00221972097A1F78FEFC81AD80AF7
:100C7000CA14DB0409F03DCFDF91CF911F910F9192
:100C8000FF90EF90DF90CF90BF90AF909F908F90AC
:100C900008956F927F928F929F92AF92BF92CF9260
:100CA000DF92EF92FF920F931F93CF93DF9380E039
:100CB0000E9499016894AA24A1F8B12C0F2EFEEE8F
:100CC0006F2EF02D6894772471F80F2EFAE0EF2E36
:100CD000F12CF02D08EE13E00F2EF1EF8F2E99245A
:100CE0009A94F02D0F2EFFEECF2EF2E0DF2EF02D96
:100CF00045C080E00E949901CE010E94A0028FEFC2
:100D00000E94990184E690E00E94A002CE01B70102
:100D10000E943219C8010E943219C401861B970B28
:100D2000C80FD91F1C161D0624F3C8010E94A0027B
:100D3000C62DD72D80E00E949901C6018C1B9D0B0A
:100D40000E94A0028FEF0E94990184E690E00E9429
:100D5000A002CE01B7010E943219C8010E943219C7
:100D6000C401861B970BC80FD91F1C161D0614F350
:100D700081E0A81AB108A114B10419F0C62DD72D2D
:100D8000B8CFDF91CF911F910F91FF90EF90DF903F
:100D9000CF90BF90AF909F908F907F906F9008956D
:100DA0002F923F924F925F926F927F928F929F927B
:100DB000AF92BF92CF92DF92EF92FF920F931F9369
:100DC000CF93DF93CDB7DEB728970FB6F894DEBF89
:100DD0000FBECDBF9E838D836A0159011816190677
:100DE0000CF062C01C821B82212C312C0F2EF7E0EC
:100DF0008F2E912CF02D2B01E89441F89B0122506D
:100E000031093A8329834CC08F81988588309105B8
:100E100024F43401681A790A05C06F80788498E058
:100E2000691A710880E00E94990181E090E00E94B7
:100E3000A002F894730183019301422D532D622D7A
:100E4000732D822D932D0E94CE011C141D0414F4C9
:100E50000E945E04E1E04E16510411F40E948003EA
:100E600029813A812230310510F40E94F8037894E8
:100E7000C5010E94A00280E00E9499018F8198859F
:100E8000019698878F83409709F0BECFEB81FC8154
:100E90003196FC83EB832D813E81E217F30721F02D
:100EA0002F8238863401BECF28960FB6F894DEBF65
:100EB0000FBECDBFDF91CF911F910F91FF90EF90AB
:100EC000DF90CF90BF90AF909F908F907F906F906A
:100ED0005F904F903F902F9008958F929F92AF9286
:100EE000BF92CF92DF92EF92FF920F931F93CF9317
:100EF000DF935C016B0180E00E949901C0E0D0E0CB
:100F00000F2EF3E08F2E912CF02D1C141D0424F4D1
:100F1000C4018C1B9D0B01C0CE019401281B390B11
:100F2000049679018901AC01BC010E94CE01C50182
:100F30000E94A00280E00E9499012196C430D10550
:100F400021F7DF91CF911F910F91FF90EF90DF90EC
:100F5000CF90BF90AF909F908F9008955F926F92C7
:100F60007F928F929F92AF92BF92CF92DF92EF9239
:100F7000FF920F931F93CF93DF93542E6901C0E02C
:100F8000D0E0E62EF12C082F10E00F2EF7E0AF2E68
:100F9000B12CF02D6894882483F8912C87E05812A6
:100FA0000BC035016C1A7D0AA4014C1B5D0BB70107
:100FB000C8010E94AE0008C0AE0141505109B701FE
:100FC000C8010E94AE003E01A301B701C8010E9402
:100FD0008700C6010E94A0022196C830D105F1F613
:100FE000DF91CF911F910F91FF90EF90DF90CF9005
:100FF000BF90AF909F908F907F906F905F9008957B
:101000008F929F92AF92BF92CF92DF92EF92FF9218
:101010000F931F93CF93DF937C015B016A0180E004
:101020000E94990100E010E0812C912C20C00E94C8
:10103000AE1981709078992324F401978E6F9F6F79
:101040000196AC01440F551F440F551F440F551F07
:10105000481B590BBE01C8010E9487002196C83069
:10106000D10529F70F5F1F4F0830110519F0C82D62
:10107000D92DDDCF1E141F040CF041C010E000E09C
:10108000912C0E94AE19EC010E94AE1987709078E5
:10109000992324F40197886F9F6F0196AC01882EE5
:1010A000801739F1CE0187709078992324F4019745
:1010B000886F9F6F0196C82F8915D9F0BA017727DD
:1010C00040E050E090E00E94D600882339F095017E
:1010D00040E0682D8C2F0E94AE0706C0950147E0C6
:1010E000682D8C2F0E94AE07C6010E94A002082D19
:1010F0009C2E1F5F812F90E08E159F0514F2DF91CB
:10110000CF911F910F91FF90EF90DF90CF90BF9004
:10111000AF909F908F9008952F923F924F925F9241
:101120006F927F928F929F92AF92BF92CF92DF92F7
:10113000EF92FF920F931F93CF93DF93CDB7DEB75C
:10114000EA970FB6F894DEBF0FBECDBF9AAB89AB5E
:1011500078AF6FAB2BAB80E00E9499010E94AE1973
:1011600087709078992324F40197886F9F6F019678
:101170007C010E94AE1987709078992324F401971E
:10118000886F9F6F01964C010E94AE19877090780E
:10119000992324F40197886F9F6F01965C01FE01EB
:1011A0003196CF011E0121E3220E311C91828082F3
:1011B000F382E282B582A4823696E215F305B1F796
:1011C000E9A9FAA9EF2B09F499C244244394512CBC
:1011D00066246394712CCC24C394D12C9C012C5094
:1011E00031093AAF29AF8DAB9EAB0E94AE1963E0D7
:1011F00070E00E943219892B69F50E94AE1963E0F4
:1012000070E00E943219009759F40E94AE1963E011
:1012100070E00E9432196C0131E0C31AD1081AC083
:101220008130910559F40E94AE1963E070E00E948C
:1012300032193C01E1E06E1A71080CC0029751F4BA
:101240000E94AE1963E070E00E9432192C01F1E0B7
:101250004F1A51082FEFC216D20699F48114910447
:1012600091F40E94AE1963E070E00E94321931E0FF
:1012700020E0019709F030E0C32ED22E31E03CABE4
:1012800003C01CAA01C01CAA8FEF6816780691F44F
:10129000E114F10489F40E94AE1963E070E00E9449
:1012A000321931E020E0019709F030E0632E722E10
:1012B00001E003C000E001C000E09FEF49165906BD
:1012C00091F4A114B10489F40E94AE1963E070E0B6
:1012D0000E94321931E020E0019709F030E0432EFE
:1012E000522E11E003C010E001C010E0E1E0CE1684
:1012F000D104A9F4F7E08F16910489F40E94AE1985
:1013000063E070E00E943219CC24C394D12C019781
:1013100009F0C12CD194C194D10821E02CAB31E06B
:1013200063167104A1F487E0E816F10481F40E94C9
:10133000AE1963E070E00E94321966246394712C48
:10134000019709F0612C71946194710801E091E0BA
:1013500049165104A1F4E7E0AE16B10481F40E94ED
:10136000AE1963E070E00E94321944244394512C7A
:10137000019709F0412C51944194510811E0FCA9C6
:10138000FF23F1F161147104E1F427E0E216F104A6
:1013900061F0E114F10471F00E94AE1980FD0EC0FD
:1013A00066246A9477247A940CC066246A9477241D
:1013B0007A9407C066246394712C03C066246394F6
:1013C000712C41145104E1F437E0A316B10461F02B
:1013D000A114B10471F00E94AE1980FD0EC0442426
:1013E0004A9455245A940CC044244A9455245A943F
:1013F00007C044244394512C03C044244394512CEB
:101400000023F1F1C114D104E1F487E088169104BE
:1014100061F08114910471F00E94AE1980FD0EC03C
:10142000CC24CA94DD24DA940CC0CC24CA94DD24E4
:10143000DA9407C0CC24C394D12C03C0CC24C39429
:10144000D12C41145104E1F493E0A916B10461F0E8
:10145000A114B10471F00E94AE1980FD0EC04424A5
:101460004A9455245A940CC044244A9455245A94BE
:1014700007C044244394512C03C044244394512C6A
:10148000112399F161147104E1F4E7E0EE16F1041F
:1014900061F0E114F10471F00E94AE1980FD0EC0FC
:1014A00066246A9477247A940CC066246A9477241C
:1014B0007A9407C066246394712C03C066246394F5
:1014C000712CC114D10489F4F7E08F16910409F44A
:1014D0000CC18114910469F00E94AE1980FD0AC10B
:1014E000CC24CA94DD24DA941EC081149104D9F46A
:1014F00003C0CC24C394D12CE114F10441F4A11411
:10150000B10459F127E0A216B104E9F526C037E08D
:10151000E316F104C1F5A114B104F9F087E0A816AF
:10152000B10489F51AC097E08916910461F5E114B8
:10153000F10441F4A114B10481F0E7E0AE16B10466
:1015400079F50BC0F7E0EF16F10489F5A114B104A9
:1015500021F027E0A216B10451F50E94AE1963E014
:1015600070E00E943219009731F08130910531F01E
:10157000029739F008C0C12CD12C05C0612C712C08
:1015800002C0412C512C8114910439F43FEFC31651
:10159000D30619F4CC24C394D12CE114F10439F40A
:1015A0008FEF6816780619F466246394712CA114E1
:1015B000B10439F49FEF4916590619F444244394B1
:1015C000512CE7E08E16910441F4F1E0CF16D104DE
:1015D00021F4CC24CA94DD24DA9427E0E216F10445
:1015E00041F431E06316710421F466246A9477248F
:1015F0007A9487E0A816B10441F491E049165104A9
:1016000021F444244A9455245A948C0C9D1CE60CD5
:10161000F71CA40CB51CEBA9E13079F4A501B701C6
:10162000C4010E9487008FA998AD0E94A002A50165
:10163000B701C4010E94AE004EC0FBA9F23051F4C4
:10164000A501B701C4010E9404018FA998AD0E94B1
:10165000A00241C02BA92330F1F5FE01B59629ADBA
:101660003AAD80819181978386838281938191872E
:10167000808784819581938782873697E217F30765
:1016800081F79A828982FC82EB82BE82AD820DA9AB
:101690001EA9F80144815581628173818081918105
:1016A0000E9487000A5F1F4F2016310691F78FA90D
:1016B00098AD0E94A0020DA91EA9F8014481558190
:1016C00062817381808191810E94AE000A5F1F4F09
:1016D0000215130591F729A93AA9215031093AAB0E
:1016E00029AB232B09F081CD09C0CC24CA94DD2479
:1016F000DA9419CFCC24C394D12C15CFEA960FB627
:10170000F894DEBF0FBECDBFDF91CF911F910F9137
:10171000FF90EF90DF90CF90BF90AF909F908F9011
:101720007F906F905F904F903F902F9008958F9291
:101730009F92AF92BF92CF92DF92EF92FF920F9360
:101740001F93CF93DF937C01EB016130710521F48E
:1017500080E00E94990155C08FEF0E94990151C00D
:101760000E94AE1987709078992324F40197886FAE
:101770009F6F0196C82ED92E0E94AE19877090785F
:10178000992324F40197886F9F6F0196A82EB92E94
:101790000E94AE1987709078992324F40197886F7E
:1017A0009F6F0196882E992E209751F4AC016A2DD7
:1017B0007B2D8C2D9D2D0E94D6008130E1F40DC033
:1017C000C130D105C1F4482F592F6A2D7B2D8C2DA6
:1017D0009D2D0E94D60081110EC09E01482D592DCD
:1017E0006A2D7B2D8C2D9D2D0E94FB00C7010E9430
:1017F000A0020F5F1F4F0F3F81E018070CF4B0CF1E
:1018000003C000E010E0ACCFDF91CF911F910F91AA
:10181000FF90EF90DF90CF90BF90AF909F908F9010
:1018200008958F929F92AF92BF92CF92DF92EF92E4
:10183000FF920F931F93CF93DF936C011816190635
:101840000CF045C0E12CF12C812C912C0E94AE199A
:1018500083709078992324F401978C6F9F6F019681
:101860008C01181619061CF5C82DD92D0E94AE1929
:101870005C010E94AE19BC0167707078772334F464
:1018800061507109686F7F6F6F5F7F4FC50187700F
:101890009078992324F40197886F9F6F019647E011
:1018A00050E00E9487002196C017D107F9F688EE14
:1018B00093E00E94A0026FEF7FEF8AE70E94BB02D5
:1018C0008FEFE81AF80AEC14FD0409F0BFCFDF919E
:1018D000CF911F910F91FF90EF90DF90CF90BF902D
:1018E000AF909F908F9008954F925F927F928F92CA
:1018F000AF92BF92CF92DF92EF92FF921F93CF935E
:10190000DF93182FD62FC72F2A0180E00E9499015C
:10191000AD2EBC2EE12CF12C712C812C0F2EF7E07A
:10192000CF2ED12CF02D36C04114510449F0F501D1
:10193000EC0FFD1F80819601281B3109C90106C0EB
:10194000F501EC0FFD1F2081822F90E01A3731F452
:10195000AC01BE01C7010E9487000EC0193731F4E7
:10196000AE01BC01C7010E94870006C0183721F4F0
:10197000A701BE010E9487002196C830D105A1F6BB
:101980003FEFE31AF30A88E0A80EB11C28E0E21644
:10199000F10419F0C72DD82DC7CFDF91CF911F913A
:1019A000FF90EF90DF90CF90BF90AF908F907F909F
:1019B0005F904F9008953F924F925F926F927F9207
:1019C0008F929F92AF92BF92CF92DF92EF92FF924F
:1019D0000F931F93CF93DF93CDB7DEB7C658D109CE
:1019E0000FB6F894DEBF0FBECDBF982E862E772E91
:1019F000CB57DF4F59834883C558D0405901CE019A
:101A00000196CD57DF4F99838883C358D040DE01BC
:101A1000AF5BBF4FCF57DF4FB983A883C158D040CA
:101A20008D016D017C01D7011D927D010E94AE19CF
:101A300087709078992324F40197886F9F6F01969F
:101A4000F60181936F01E016F10669F76894EE24C0
:101A5000E3F8F12CCF57DF4F3880C158D040CE5734
:101A6000DF4F4880C258D040CD57DF4F5880C35811
:101A7000D040CC57DF4F6880C458D040C82CD72CFA
:101A80001DC080819D91891710F48F5F80833196EE
:101A9000E017F107B1F7A501BE016F5F7F4F892DF8
:101AA0000E94740C8C2C7D2C8C2D9D2D0E94A002EC
:101AB000F1E0EF1AF108E114F10429F0A32DB42D9F
:101AC000E52DF62DDECFCE018F579F4FFE01EF5B48
:101AD000FF4F27E02193E817F907E1F7CB57DF4FD6
:101AE00088819981C558D0400E94A0026894EE2454
:101AF000E3F8F12CCF57DF4FC880C158D040CE5704
:101B0000DF4F6880C258D040CD57DF4F5880C35850
:101B1000D040CC57DF4FD880C458D04024C0AF014C
:101B20003081DC012D91CD01321710F43F5F3083FD
:101B3000DA013C91231710F431503C933196E017B1
:101B4000F10769F7A501BE016F5F7F4F892D0E94E4
:101B5000740C882D972D0E94A002B1E0EB1AF108B9
:101B6000E114F10429F08C2D962DE52DFD2DD7CF14
:101B7000CA57DF4F0FB6F894DEBF0FBECDBFDF915F
:101B8000CF911F910F91FF90EF90DF90CF90BF907A
:101B9000AF909F908F907F906F905F904F903F900D
:101BA00008952F923F924F925F926F927F928F9201
:101BB0009F92AF92BF92CF92DF92EF92FF920F93DC
:101BC0001F93CF93DF93CDB7DEB7C258D1090FB6BD
:101BD000F894DEBF0FBECDBF282E7B014A0159010C
:101BE000CE018F5B9F4F8E010F571F4FFC0111924B
:101BF000E017F107E1F7CF57DF4F19821882C1587C
:101C0000D040CC24C394D12C382E492E512C612C99
:101C10000F2EF7E07F2EF02D81E0A816B10459F5C4
:101C20008DC00E94AE198F739078992324F4019788
:101C3000806C9F6F01969C01E1E4F0E0EC0FFD1FCA
:101C4000E80FF91F80818111ECCFCF57DF4F8881DA
:101C50009981C158D0400196CF57DF4F998388832F
:101C6000C158D040E1E4F0E0EC0FFD1FE20FF31F9C
:101C700091E0908323C082E0A816B104F9F4CF5715
:101C8000DF4F88819981C158D04080349105B4F4E8
:101C9000E1E4F0E0EC0FFD1FE80FF91F80818F5F9A
:101CA0008083CF57DF4F88819981C158D0400196FA
:101CB000CF57DF4F99838883C158D040E32DF42D4F
:101CC000852D962DDF0120813FEF320F363010F445
:101CD0002F5F208331962C91273009F401960E173F
:101CE0001F0781F78034910511F4C52CD62CDE0135
:101CF0001196E32DF42DE114F10419F480818C93F5
:101D000004C08081972D981B9C93319611960E17D5
:101D10001F0789F7C4010E94A002452D562DBE0160
:101D20006F5F7F4F822D0E94740C82B394E08927ED
:101D300082BBC114D10409F06FCF0BC0CF57DF4F66
:101D400088819981C158D040803491050CF0B6CF7C
:101D500068CFCE57DF4F0FB6F894DEBF0FBECDBFB2
:101D6000DF91CF911F910F91FF90EF90DF90CF9077
:101D7000BF90AF909F908F907F906F905F904F90AB
:101D80003F902F9008959F92AF92BF92CF92DF9293
:101D9000EF92FF920F931F93CF93DF938C0180E01C
:101DA0000E949901C0E0D0E0912CA12CFF24FA946C
:101DB000D02EE12E15C0FC01E20FF31FE851FF4FBA
:101DC000F0822F5F3F4F28303105A9F7CD2CBE2C74
:101DD0008D2D9E2D0E94A0022196C830D10551F074
:101DE000292D3A2DCE01880F991F880F991F880F32
:101DF000991FE1CFC801880F991F800F911F0E9482
:101E0000A002C0E0D0E000E010E013C0FA01E20F51
:101E1000F31FE851FF4F10822F5F3F4F28303105ED
:101E2000A9F78C2D9B2D0E94A0022196C830D105C8
:101E300051F0202F312FAE01440F551F440F551F75
:101E4000440F551FE3CFDF91CF911F910F91FF906A
:101E5000EF90DF90CF90BF90AF909F9008954F92FA
:101E60005F926F927F928F929F92AF92BF92CF922A
:101E7000DF92EF92FF920F931F93CF93DF934C016A
:101E80006B013A01181619060CF042C0A12CB12CB6
:101E9000412C512C38C00E94AE197C010E94AE1911
:101EA0008C010E94AE19A70147705078552334F475
:101EB00041505109486F5F6F4F5F5F4FB8016770C6
:101EC0007078772334F461507109686F7F6F6F5FAA
:101ED0007F4F87709078992324F40197886F9F6FC4
:101EE00001960E9487002196CC16DD06A4F6C30158
:101EF0000E94A00280E00E9499018FEFA81AB80A00
:101F0000A814B90429F0DD2094F3C42DD52DC3CF36
:101F1000DF91CF911F910F91FF90EF90DF90CF90C5
:101F2000BF90AF909F908F907F906F905F904F90F9
:101F30000895CF93DF93C1E0D0E048EC50E0BE01BC
:101F400085E090E00E942F0F2196C431D105A9F7BA
:101F500048EC50E0BE0185E090E00E942F0F2197F1
:101F60002097B1F7DF91CF910895CF93DF93EC01E4
:101F7000CA01DD23DCF0FE0120E030E0E830F105AD
:101F80007CF42830310564F4DF01AA0FBB1FAA0FCF
:101F9000BB1FAA0FBB1FA20FB31FA851BF4F6C934B
:101FA0002F5F3F4F3197C217D30744F70E94A0021B
:101FB000CE01DF91CF9108950F931F93CF93DF93BD
:101FC000EB018A01892B51F080E190E0AE01B8016C
:101FD0000E94B50F01979923CCF70AC080E090E0EA
:101FE000AE01B8010E94B50F019680319105C4F38E
:101FF000DF91CF911F910F9108952F923F924F92B1
:102000005F926F927F928F929F92AF92BF92CF9288
:10201000DF92EF92FF920F931F93CF93DF93CDB791
:10202000DEB766970FB6F894DEBF0FBECDBF9A87B6
:1020300089871B015E874D87388B2F871A8B098B09
:102040004F3F5F4F19F0812C912C05C00F2EF7E008
:102050008F2E912CF02D89E090E0AC01A985BA85F6
:102060004A1B5B0B5C874B870E94AE196B857C8596
:102070000E9432199C838B830E94AE196B857C85EC
:102080000E9432199E838D83EF85F8891E161F06E4
:102090000CF09CC018861F8229853A853C8B2B8BBF
:1020A0000E94AE198C010E94AE1963E070E00E949C
:1020B0003219FC013197C80163E070E00E943219C7
:1020C0009C01215031094B815C81240F351F121670
:1020D00013063CF48B859C852817390714F43C8340
:1020E0002B838D819E818E0F9F1F181619063CF43D
:1020F000AB85BC858A179B0714F49E838D836D8501
:102100007E85822D0E94BB02E985FA851E161F0678
:102110000CF04DC08B819C812F01480E591E7C0113
:102120006D807E8083012B893C89020F131F5C0127
:10213000A618B708A301481B590B5A83498330C01E
:102140005AE72516310439F4A4016D897E89C70147
:102150000E94870017C089E72816310439F44D8999
:102160005E89B401C7010E9487000CC098E7291658
:10217000310441F44D895E894A0D5B1DB601C401ED
:102180000E948700AD89BE891196BE8BAD8BA017CA
:10219000B107B1F6BFEFEB1AFB0AE414F50439F00E
:1021A0007E8A6D8AC980DA80CE0CDF1CC9CF89890E
:1021B0009A890E94A002EF81F8853196F887EF8313
:1021C0002F853889E217F30709F06ACF66960FB6B4
:1021D000F894DEBF0FBECDBFDF91CF911F910F915D
:1021E000FF90EF90DF90CF90BF90AF909F908F9037
:1021F0007F906F905F904F903F902F9008952F9217
:102200003F924F925F926F927F928F929F92AF9286
:10221000BF92CF92DF92EF92FF920F931F93CF93D3
:10222000DF93CDB7DEB7E6970FB6F894DEBF0FBEEB
:10223000CDBF99AB88AB542E80E2E4E6F0E0DE013E
:10224000119601900D928A95E1F728A939A91216E5
:1022500013060CF04DC21FA61EA60F2EF7E02F2E60
:10226000F02D19A61DA66CA77CAB30E03AAB80E040
:102270008BAB97E09DAB1EAA30C26114710441F490
:10228000EBA1FCA13196FCA3EBA3349779F407C032
:102290002BA13CA12F5F3F4F3CA32BA307C039A527
:1022A0003BA38DA58CA366246394712C80E090E001
:1022B000EBA1FCA18E1B9F0B880F991F880F991F04
:1022C000880F991F4F96C9A4DDA421E030E02C0FA0
:1022D0003D1F280F391F3AA329A35F01AA0CBB1C7D
:1022E000AA0CBB1CAA0CBB1C81E090E08C0F9D1FAC
:1022F000A80EB91E2AC0402F692D852D0E945616A2
:102300008823A1F06114710451F4F501E00FF11F6D
:10231000608170E0A601C8010E94870007C0F70134
:10232000608170E0A601C8010E9487000F5F1F4F07
:10233000F1E0EF1AF10808301105E9F62FEFC21AA3
:10234000D20A38E0C316D10439F0E9A0FAA0082D6A
:10235000142D922C9C18CFCF1CA5812F932D0E9459
:10236000A00280E00E9499018DA19EA101979EA3E9
:102370008DA3892B09F081CF1AA73BA697E09FA3D5
:1023800018A61EA21DA2612C712C4DA48DA83EA8DA
:102390006114710441F4EDA1FEA13196FEA3EDA3F9
:1023A000349771F407C02DA13EA12F5F3F4F3EA38C
:1023B0002DA306C039A53DA34EA266246394712CBB
:1023C00080E090E0EDA1FEA18E1B9F0B880F991F6E
:1023D000880F991F880F991F4F96A9A4B42C21E04C
:1023E00030E02C0F3D1F280F391F3AA329A3CF013E
:1023F000880F991F880F991F880F991FE1E0F0E05F
:10240000EC0FFD1FE80FF91FFCA3EBA32DC0422D1D
:10241000401B692D852D0E945616882391F061146A
:10242000710441F4F7018081A501B80190E00E9498
:10243000870007C0F6018081A501B80190E00E94E5
:10244000870001501109F1E0CF1AD1082FEFE21AED
:10245000F20A0F3F3FEF1307D1F68FEFA81AB80A21
:1024600098E0A916B10449F0C9A0DAA0EBA0FCA03D
:10247000082D132D922C9A18CACF8AA59BA50E94CD
:10248000A00280E00E949901EFA1F8A53197F8A77A
:10249000EFA3EF2B09F07CCFF7E0FDA31EA21CA257
:1024A0001BA2612C712C3DA48AA84BA86114710455
:1024B00051F42BA13CA12F5F3F4F3CA32BA3243011
:1024C000310569F406C08BA19CA101969CA38BA346
:1024D00006C099A59BA33CA266246394712C80E05E
:1024E00090E0EBA1FCA18E1B9F0B880F991F880F1A
:1024F000991F880F991F4F96C9A4D32C21E030E073
:102500002C0F3D1F280F391F3AA329A35F01AA0CE6
:10251000BB1CAA0CBB1CAA0CBB1C81E090E08C0F5E
:102520009D1FA80EB91E2BC0422D401B692D852D65
:102530000E9456168823A1F06114710451F4F5012C
:10254000E00FF11F608170E0A601C8010E948700C2
:1025500007C0F701608170E0A601C8010E948700F2
:102560000F5F1F4FF1E0EF1AF10808301105E1F697
:102570002FEFC21AD20A38E0C316D10439F0E9A00D
:10258000FAA0082D142D922C9C18CECF8AA59BA5BD
:102590000E94A00280E00E9499018DA19EA1019756
:1025A0009EA38DA3892B09F081CF97E09FA318A646
:1025B0001EA21DA2612C712C4DA48DA83EA86114F1
:1025C000710441F4EDA1FEA13196FEA3EDA3349771
:1025D00071F407C02DA13EA12F5F3F4F3EA32DA355
:1025E00006C039A53DA34EA266246394712C80E0F9
:1025F00090E0EDA1FEA18E1B9F0B880F991F880F05
:10260000991F880F991F4F96A9A4B42C21E030E0A0
:102610002C0F3D1F280F391F3AA329A3CF01880F84
:10262000991F880F991F880F991FE1E0F0E0EC0FC8
:10263000FD1FE80FF91FFCA3EBA32CC0402F692D51
:10264000852D0E945616882391F06114710441F47F
:10265000F7018081A501B80190E00E94870007C0C2
:10266000F6018081A501B80190E00E948700015029
:102670001109F1E0CF1AD1082FEFE21AF20A0F3F49
:102680003FEF1307D9F68FEFA81AB80A98E0A916FA
:10269000B10449F0C9A0DAA0EBA0FCA0082D132DCD
:1026A000922C9A18CBCF8AA59BA50E94A00280E00D
:1026B0000E949901EFA1F8A53197F8A7EFA3EF2B9E
:1026C00009F07DCF2EA53FA52F5F3F4F3FA72EA737
:1026D00088A999A92817390759F097E09DA31EA248
:1026E0001CA21BA2612C712C3CA88AA84BA8C5CDAA
:1026F000E6960FB6F894DEBF0FBECDBFDF91CF9147
:102700001F910F91FF90EF90DF90CF90BF90AF900F
:102710009F908F907F906F905F904F903F902F9001
:1027200008958F929F92AF92BF92CF92DF92EF92D5
:10273000FF920F931F93CF93DF935C016B0181E0B6
:10274000C81AD1081C141D040CF042C085010C0DE0
:102750001D1D812C912C25C0F7018081682F6F7081
:1027600070E082958F70AE0190E00E94D600F80173
:102770009081282F30E0692F6F7070E0892F82954B
:102780008F70AE0190E00E94FB002196C830D10509
:1027900019F7F1E0CF1AD10801501109C114D10481
:1027A000B9F0C82DD92D7801F1E0EF1AF108D4CF96
:1027B000F5018081682F6F7070E082958F70AE0197
:1027C00090E00E94AE002196C830D10589F703C081
:1027D000C0E0D0E0EDCFDF91CF911F910F91FF903E
:1027E000EF90DF90CF90BF90AF909F908F90089523
:1027F0004F925F926F927F928F929F92AF92BF9211
:10280000CF92DF92EF92FF920F931F93CF93DF93BC
:10281000CDB7DEB76C970FB6F894DEBF0FBECDBF55
:102820006C015B014CE150E0BE016F5F7F4F80E0C7
:102830000E9416161C141D04BCF5E12CF12C04E0BA
:1028400010E00F2EF3E08F2E912CF02D0F2EF7E0DD
:102850006F2EF02D712C412C512C0E94AE19B40119
:102860000E9432190197080F191F0830110514F042
:10287000062D172D112314F4042D152D6CE170E095
:10288000CE0101960E949113A801662D772D842D0B
:10289000952D0E948700C5010E94A0028FEFE81AC3
:1028A000F80AEC14FD04C9F66C960FB6F894DEBF76
:1028B0000FBECDBFDF91CF911F910F91FF90EF9091
:1028C000DF90CF90BF90AF909F908F907F906F9050
:1028D0005F904F900895CF92DF92EF92FF920F9307
:1028E0001F93CF93DF93CDB7DEB760970FB6F89401
:1028F000DEBF0FBECDBF7C016B0140E150E0BE01E9
:102900006F5F7F4F81E00E9416161E141F040CF5A6
:1029100000E010E0A80147705078552334F441508E
:102920005109486F5F6F4F5F5F4F60E070E084E078
:1029300090E00E948700C6010E94A0026CE170E056
:10294000CE0101960E9491130F5F1F4F0E151F05B8
:1029500009F760960FB6F894DEBF0FBECDBFDF91CA
:10296000CF911F910F91FF90EF90DF90CF9008953E
:102970002F923F924F925F926F927F928F929F928F
:10298000AF92BF92CF92DF92EF92FF920F931F937D
:10299000CF93DF93CDB7DEB7A5970FB6F894DEBF20
:1029A0000FBECDBF8AA39BA38B014CE150E0BE01BB
:1029B0006F5F7F4F80E00E941616F80180818823A8
:1029C00009F470C098012F5F3F4F3DA32CA34E0127
:1029D00032E2830E911C0F2EF7E0CF2ED12CF02D7A
:1029E000612C712C4C2C5D2C2AA03BA0BE01635E97
:1029F0007F4F0E942C16CE014D965C01F501E190AF
:102A00005F01062D172DF12CC601801B910B97013C
:102A100002C0359527958A95E2F720FF08C0A801E6
:102A2000642D752D862D972D0E94870007C0A80163
:102A3000642D752D862D972D0E94AE000F5F1F4FC0
:102A40000830110509F76CE170E0CE0101960E9493
:102A50009113822D932D0E94A002A814B90471F63F
:102A60006CE170E0CE0101960E949113822D932DAE
:102A70000E94A002ECA1FDA18191FDA3ECA3811114
:102A8000B5CF10C06CE170E0CE0101960E949113A9
:102A90008AA19BA10E94A0020150110901151105F4
:102AA00089F703C00CE110E0EDCFA5960FB6F894BE
:102AB000DEBF0FBECDBFDF91CF911F910F91FF9071
:102AC000EF90DF90CF90BF90AF909F908F907F90CE
:102AD0006F905F904F903F902F9008952F923F926C
:102AE0004F925F926F927F928F929F92AF92BF921E
:102AF000CF92DF92EF92FF920F931F93CF93DF93CA
:102B0000CDB7DEB76C970FB6F894DEBF0FBECDBF62
:102B1000582E492E862E6A014CE150E0BE016F5FAF
:102B20007F4F80E00E9416161C141D040CF062C03A
:102B3000E12CF12C312C0F2EF7E09F2EF02DA12C43
:102B4000B12C652C742C44C0422D692D601B882D3E
:102B50000E945616882341F0A80167E070E08A2D94
:102B60009B2D0E94870007C0A80167E070E08A2DB6
:102B70009B2D0E94AE000F5F1F4F0830110521F7FB
:102B8000862D972D0E94A0026CE170E0CE01019687
:102B90000E949113239488E0281619F00A2D1B2D0A
:102BA000D3CF04E110E0862D972D0E94A0026CE1A6
:102BB00070E0CE0101960E94911301501109011598
:102BC000110589F78FEFE81AF80AEC14FD0491F06B
:102BD000232CE4CF852D942D0E94A0026CE170E09F
:102BE000CE0101960E9491130150110901151105A2
:102BF00089F703C00AE010E0EDCF6C960FB6F894A9
:102C0000DEBF0FBECDBFDF91CF911F910F91FF901F
:102C1000EF90DF90CF90BF90AF909F908F907F907C
:102C20006F905F904F903F902F900895813019F0F2
:102C3000E0E0F0E002C0ECE1F0E0141615065CF410
:102C4000EA57FF4FDB01640F751F84918D93319616
:102C5000A617B707D1F70895EF92FF920F931F932E
:102C6000CF93DF93805290E07C01EE0CFF1CEE0CC2
:102C7000FF1C8E0D9F1D062F172FC0E0D0E09C017A
:102C8000285C3F4F7901C7018C0F9D1F0E94BE1920
:102C9000F80181938F012196C530D105A1F7DF910D
:102CA000CF911F910F91FF90EF900895CF93C42F74
:102CB00070E09B0148E0849F200D311D1124C90163
:102CC000805090400E94BE1990E002C09595879573
:102CD000CA95E2F78170CF9108950F931F93CF9318
:102CE000DF93EC0180E00E949901C931D10508F021
:102CF000C3C1FE01E65DFF4F0C94461984E690E0E7
:102D00000E94110CBDC140ED57E06CED70E084E114
:102D100090E00E940008B4C161E070E085E090E0BE
:102D20000E94970B60E070E085E090E00E94970BB6
:102D300061E070E085E090E00E94970B60E070E059
:102D400085E090E00E94970B9BC108EE13E024E61B
:102D500030E04FEF5FEF6AE770E082E090E00E94C2
:102D6000FD0F8EC10E9449068BC1C0E04C2F4470FC
:102D700050E06C2F637070E022EC31E081E090E075
:102D80000E94D006CF5FC83089F760E070E080E233
:102D900093E00E946D0761E070E080E293E00E94A2
:102DA0006D0760E070E080E293E00E946D0761E0F3
:102DB00070E080E293E00E946D0762C160E971E01B
:102DC0008AE790E00E94350560E971E088E790E0CD
:102DD0000E94350560E971E089E790E00E943505C1
:102DE00060E971E08AE790E00E94350560E971E0F2
:102DF00088E790E00E94350560E971E089E790E09E
:102E00000E94350580E00E9499013AC180E00E944D
:102E100099014FEF50E060E273E080E090E00E94A3
:102E2000DC0F40E050E060E273E080E090E00E9460
:102E3000DC0F4FEF50E060E273E081E090E00E9431
:102E4000DC0F4FEF50E060E273E081E090E00E9421
:102E5000DC0F16C120E030E048E853E166E272E0A2
:102E60008AE70E94DB0C21E030E048E853E166E2AB
:102E700072E08AE70E94DB0C20E030E048E853E192
:102E800066E272E08AE70E94DB0C21E030E048E86D
:102E900053E166E272E08AE70E94DB0C20E030E05A
:102EA00048E853E166E272E088E70E94DB0C21E02B
:102EB00030E048E853E166E272E088E70E94DB0C0C
:102EC00020E030E048E853E166E272E089E70E94E2
:102ED000DB0C21E030E048E853E166E272E089E78C
:102EE0000E94DB0CCDC080ED97E00E94C30EC8C0ED
:102EF00008EE13E024E630E041E050E06AE770E0DD
:102F000081E090E00E94FD0FBBC084E890E00E9449
:102F10009F04B6C021E030E048EC50E060E070E093
:102F20008AE70E94D10D8CED95E00E94A00221E07D
:102F300030E048EC50E061E070E08AE70E94D10D9B
:102F40008CED95E00E94A00222E030E048EC50E0D9
:102F500060E070E08AE70E94D10D8CED95E00E9460
:102F6000A00222E030E048EC50E061E070E08AE747
:102F70000E94D10D8CED95E00E94A00221E030E08E
:102F800048EC50E060E070E089E70E94D10D8CEDE4
:102F900095E00E94A00221E030E048EC50E061E0C2
:102FA00070E089E70E94D10D8CED95E00E94A002AF
:102FB00067C022E041E068E572E08AEF90E00E949D
:102FC0008C085EC068EE73E084E690E00E946B14AB
:102FD00057C043E050E062E08CEB92E00E946E1537
:102FE0004FC06FE870E080ED97E00E94B81448C0D1
:102FF00064EF71E088EC90E00E94F81341C008EEA5
:1030000013E024E630E04FEF5FEF6AE770E083E023
:1030100090E00E94FD0F34C044E064EC79E082E06F
:1030200090E00E94FF102CC00E94990F29C008EE6A
:1030300013E024E630E04FEF5FEF6AE770E084E0F2
:1030400090E00E94FD0F1CC023E041E068E572E0C3
:103050008AEF90E00E948C0813C042E064EC79E0B3
:1030600082E090E00E94FF100BC068EE73E083E006
:1030700090E00E94640504C083EA90E00E949F04EF
:10308000DF91CF911F910F9108951F920F920FB66C
:103090000F9211242F933F938F939F93EF93FF935E
:1030A00015BAC39A80E090E020912901FC0138E034
:1030B000239FE00DF11D1124E851FF4F20812BBB10
:1030C00028B331E0380F3770287F232B28BB0196B7
:1030D0008830910549F7C3982091290181E090E05B
:1030E00002C0880F991F2A95E2F785BB80912901BC
:1030F0008F5F8093290180912901883011F410920B
:103100002901FF91EF919F918F913F912F910F9006
:103110000FBE0F901F9018958FEF8ABB9FEE97BB45
:1031200084BB8FED81BB1BBA15BA80E188BB80E2FE
:1031300082BB8AE083BD85B5856085BD85B5886025
:1031400085BD14BC89B7806889BF10BC87E189B987
:1031500086E880BD88E18AB91CB80895CF93DF93D3
:10316000939AC0E0D0E02196CE010E94B31988EE78
:1031700093E00E94A0029398929A859B0DC0B49B05
:103180000EC088EE93E00E94A0029298939A859BCD
:1031900009C0B499E8CF09C082E090E008C081E09E
:1031A00090E005C082E090E002C081E090E0DF9115
:1031B000CF91089520E030E040E050E0C4E010E01E
:1031C000D0E004C0212F3D2F412F5D2F82B38C27EB
:1031D00082BB5F9BFECF8CB190E08F3F910531F4B5
:1031E0005F9BFECF8CB190E0009761F3FA01EE0F88
:1031F000FF1FEE0FFF1FEE0FFF1FE20FF31FE8553B
:10320000FF4F80832730310579F44730510539F479
:103210000E94B102212F3D2F412F5D2FD7CF4F5F4D
:103220005F4F212F3D2FD2CF2F5F3F4FCFCF0E9437
:103230008C1881E0809329010E94AE18789402973F
:1032400029F0C0E0D0E000E010E002C00E94DA18EF
:10325000CE010E946D162196C931D105CCF3C02F45
:10326000D12FF6CF97FB072E16F4009407D077FDE9
:1032700009D00E944C1907FC05D03EF49095819529
:103280009F4F0895709561957F4F0895EE0FFF1F32
:103290000590F491E02D0994AA1BBB1B51E107C0D6
:1032A000AA1FBB1FA617B70710F0A61BB70B881FD6
:1032B000991F5A95A9F780959095BC01CD01089565
:1032C0008F929F92AF92BF92CF92DF92EF92FF9236
:1032D000CF93DF93EC01688179818A819B816115AD
:1032E00071058105910521F464E279ED8BE597E0A4
:1032F0002DE133EF41E050E00E94C61949015A0127
:103300009B01AC01A7EAB1E40E94E5196B017C01C5
:10331000ACEEB4EFA50194010E94F319C60ED71EBE
:10332000E81EF91EF7FE06C081E0C81AD108E108C0
:1033300080E8F80AC882D982EA82FB82C6019F77B8
:10334000DF91CF91FF90EF90DF90CF90BF90AF9043
:103350009F908F9008950E946019089580E690E0F4
:103360000E9460190895A0E0B0E0809360009093FF
:103370006100A0936200B09363000895E199FECFCD
:103380009FBB8EBBE09A99278DB30895052E97FBBE
:103390001EF400940E94DD1957FD07D00E94F81911
:1033A00007FC03D04EF40C94DD19509540953095F0
:1033B00021953F4F4F4F5F4F0895909580957095A1
:1033C00061957F4F8F4F9F4F08950E941A1AA59FB6
:1033D000900DB49F900DA49F800D911D1124089510
:1033E000B7FF0C94E5190E94E519821B930B089511
:1033F000A1E21A2EAA1BBB1BFD010DC0AA1FBB1FF9
:10340000EE1FFF1FA217B307E407F50720F0A21B6A
:10341000B30BE40BF50B661F771F881F991F1A94D7
:1034200069F760957095809590959B01AC01BD0101
:10343000CF010895A29FB001B39FC001A39F700D5B
:10344000811D1124911DB29F700D811D1124911DAC
:063450000895F894FFCF7F
:103456000100000000010203040506070101020342
:103466000405060602020303040405050303030319
:10347600040404044D4F555345522E434F4D004D01
:10348600204F2055205320452052202E2043204FE8
:08349600204D004641494C00A5
:00000001FF
